:100000003EC000006FC000006DC000006BC000006B
:1000100069C0000067C0000065C0000063C0000048
:1000200061C000005FC000005DC000005BC0000058
:1000300059C0000057C0000040C3000053C000007A
:1000400051C000004FC000004DC000004BC0000078
:1000500049C0000047C0000045C0000043C0000088
:1000600041C000003FC000003DC00000A7C200002A
:100070009FC20000A9C2000035C00000790311240E
:100080001FBECFEFCDBFDFE3DEBF80914000809386
:100090004000811105C098ED21E094BF20934100FC
:1000A0008CBB29E3A4E1B8E301C01D92A135B207DE
:1000B000E1F718E3A0E0B8E3E9E8F5E102C0059054
:1000C0000D92A431B107D9F710E0CFE3D0E004C01E
:1000D0002197FE010E945F0ACE33D107C9F733D3BF
:1000E0000C946E0A8DCFFB01A485B585ED91FC9132
:1000F00011970190F081E02D682FCD01099590E0D6
:1001000080E00895AF92BF92CF92DF92EF92FF927C
:100110000F931F93CF93DF936C017B018B01040F2F
:10012000151FEB015E01AE18BF08C017D10759F0CB
:100130006991D601ED91FC910190F081E02DC6010D
:100140000995892B79F7C501DF91CF911F910F9107
:10015000FF90EF90DF90CF90BF90AF900895FC019B
:1001600057854089252F30E0842F90E0821B930B28
:10017000541710F0CF96089501970895FC019585C6
:100180008685981761F0A685AE0FBF2FB11D5196D9
:100190008C9196859F5F9F73968790E008958FEF6F
:1001A0009FEF0895FC0195858685981731F0868527
:1001B000E80FF11D818990E008958FEF9FEF08957A
:1001C000FC0195852685892F90E0805C9F4F821BDE
:1001D00091098F7399270895DC010FB607FE04C0BB
:1001E000809111018823B1F01896ED91FC91199737
:1001F000848185FF0FC01F969C911F9750968C910C
:10020000981304C085818F7D85830895E8EBF8E31A
:10021000E894E7C108950F931F93CF93DF93EC0108
:100220008C8581608C879F85888998130BC0E885B1
:10023000F985848185FF06C08C8581FD0DC080E431
:10024000848312C0062F1F851F5F1F738889811347
:1002500015C0CE01C1DFFACF85818F77806490E42D
:100260009483E885F9858583E885F985628381E053
:1002700090E0DF91CF911F910F910895EF85EC0FE2
:10028000FD2FF11DEF5AFF4F00831F878C85E885F6
:10029000F98581FF09C085818F77806690E494831A
:1002A000E885F9858583E3CF85818062FBCFCF9395
:1002B000DF93EC018C85882359F0E885F9858581E9
:1002C00085FD03C0848186FD03C0CE0185DFF5CFA7
:1002D000DF91CF9108959FB7F894E0915A0AF09179
:1002E0005B0A8091560A2091493930914A394091F0
:1002F0004B3950914C399FBF80FF08C0CF018827F0
:10030000892B21F42F5F3F4F4F4F5F4F0F01169402
:10031000079416940794F001169407941694079482
:10032000E019F109169407940694102C169416946B
:10033000011816941694010C1124E00DF11DA8EE7D
:10034000B3E00E94DF096E0F7F1F811D911D08958C
:10035000CF92DF92EF92FF92CF93DF936B017C01FC
:10036000BADFEB01B8DF6C1B7D0B683E7340A0F079
:10037000C114D104E104F10439F4DF91CF91FF906D
:10038000EF90DF90CF90089581E0C81AD108E1087E
:10039000F108C851DC4FE6CFC114D104E104F104E7
:1003A00009F7EBCFCF93DF93CDB7DEB72E97CDBF55
:1003B000DEBF83E790E089879A871B861C8682E0F0
:1003C0008C8388EB98E38D879E87AE01495E5F4FF3
:1003D0006D897E89CE01019683D52E96CDBFDEBF75
:1003E000DF91CF91089564E670E080E090E0B0DFA7
:1003F00082E495E99F938F9388EB98E39F938F9383
:10040000D1DF64E670E080E090E0A2DF88EB98E363
:10041000D7DE0F900F900F900F90892B49F088EB4B
:1004200098E3CEDE892B21F088EB98E3A7DEF7CFA7
:100430000895FC0101900020E9F73197AF01481BB6
:10044000590BBC0188EB98E35DCECF93DF938231EB
:1004500008F047C090E0EC01C25EDA4628812F3FE9
:1004600009F43FC0AC01445F5A46DA01EC91B0E2B6
:10047000EB9FF0011124FC5F611136C026833081AF
:100480002323A1F49C012E503B46D9012C91309797
:1004900069F1283058F57096E20FF11D3FB7F894D6
:1004A0002081611126C0277F20833FBF80529B4659
:1004B000FC0190819923A9F08881903409F190384A
:1004C000E1F0903171F4DA019C919130A1F4853022
:1004D00010F0880F82959091010A8095892380936E
:1004E000010ADF91CF9108952583C9CFF0E0E0E0C4
:1004F000D5CF2860D9CF880FEECF1092A006F1CFCC
:1005000020E4823009F420E89091920A922349F382
:100510006FB7F8949091800A9E7F9093800A4091E3
:10052000920A30E02095309550E02423352398ED51
:1005300094BF2093920A90918E0A90FFFCCF9091E5
:10054000800A91609093800A813039F48091500440
:100550008F77809350046FBFC4CF809151048F7701
:1005600080935104F8CF8231F0F490E0FC01E25E18
:10057000FA4620812F3FB9F0FC01E45FFA46E081A2
:1005800030E2E39FF0011124FC5F613069F42183C4
:100590008E509B46DC018C91E80FF11D8089613003
:1005A00029F08860808B08952283F2CF877FFACF6D
:1005B000EF93FF93F898E8EBF8E30BC0EF93FF930A
:1005C000F898E8EBF8E333C0EF93FF93E8EBF8E338
:1005D0005BC02F932FB72F938F939F93AF93BF93AE
:1005E0006894CF93DF9320E0C085D8E09089DF0145
:1005F000A90FB21FAF5ABF4F8C9120E42C838A837E
:100600009F5F9F738D812785291302C08F7D8D8306
:10061000908BDF91CF910EF0FDCDBF91AF919F9167
:100620008F912F912FBF2F91FF91EF9118952F93BD
:100630002FB72F933F938F939F93CF93DF93C085D3
:10064000D8E0898198818674880F3485382B82FDA3
:100650000DC0C58581E08C0F8F732685281791F01A
:10066000CE0FDF2F20E0D21F998B85873487DF9153
:10067000CF919F918F913F912F912FBF2F91FF91FC
:10068000EF9118953064F2CF8F938FB78F939F932C
:10069000CF93DF93C085D8E09D8188818C8187FDD1
:1006A000FCCF9F7B90689D83DF91CF919F918F912D
:1006B0008FBF8F91FF91EF9118958F9381E0809379
:1006C000560A8FB78F93EF93FF93E9E4F9E38081A4
:1006D0008F5F808381818F4F818382818F4F82835F
:1006E00083818F4F8383FF91EF918F918FBF8F9184
:1006F0001895E8EBF8E31282138288EE93E0A0E00D
:10070000B0E084839583A683B78384E395E98083EF
:10071000918380E098E080879187128613862FB7B7
:10072000F8948091493990914A39A0914B39B09110
:100730004C392FBF80934D3990934E39A0934F3948
:10074000B09350390895CF93DF93CDB7DEB7E397D9
:10075000CDBFDEBF81E098ED94BF80936100E0E003
:10076000F6E092E592839DE0958390E29383808307
:10077000109202028093030A9EEF9093260A9093B0
:10078000270A9BE09093000AE0E8FAE02DEF31E0C1
:1007900026A737A722A733A790E89283118290E17A
:1007A000908327E833E120935C0A30935D0A8093BD
:1007B000550A1092510A83E08093500A78948091F0
:1007C000C43880FF11C088EB98E371DDE091C03838
:1007D000F091C1381682158280EC84838091C638EE
:1007E0008093C5381092C438FFB6F894E091C038B1
:1007F000F091C138168283E087838BE591E0808792
:100800009187148680E8858380EC86839091C33835
:100810000091C23880910102992309F433C28160AA
:1008200080930102090F1127111F000F111F000FE4
:10083000111F0C5F1A4661E0D8018C9194DE62E0D2
:10084000F801818190DEFFBE61E08CE08CDE60E02B
:100850008CE0FBDD64EF71E080E090E079DD61E049
:100860008CE0F3DD82E495E99F938F9388EB98E326
:100870009F938F9397DD0F900F900F900F90A0E4B0
:10088000BA2EBFE1AB2E19E0912E0EE1802E11E0C1
:100890000DE12FB7F8948091493990914A39A09190
:1008A0004B39B0914C392FBF80934D3990934E39CD
:1008B000A0934F39B0935039409114385091153866
:1008C0006091163870911738481759076A077B07E7
:1008D000D8F48091480482FDD7C161E08CE0B5DD99
:1008E00080914D3990914E39A0914F39B091503946
:1008F0008A549C4FAF4FBF4F809314389093153854
:10090000A0931638B093173888EB98E359DC181683
:1009100019060CF0BECF64E670E080E090E018DDD0
:100920008FEF8093B73888EB98E328DC8093983872
:1009300080919838833609F0D1C262E370E080E09C
:1009400090E006DD01E010E088EB98E317DCF801A9
:10095000E856F74C80830F5F1F4F00321105A1F757
:100960008091B7388111BAC242E058E3DA010D90A4
:100970000020E9F7AD0143505843CA010197409761
:1009800008F07DCFCA0183709927892B41F0CA01F5
:100990009695879596958795049709F470CFE8E129
:1009A000F8E380E1DF011D928A95E9F762E078E3E0
:1009B000CF018BD548E958E3FA0101900020E9F70F
:1009C000AF0149595843CA0101978035910508F094
:1009D00056CF8091003890910138009709F44FCF9D
:1009E0008417950708F44BCF1A0136942794369450
:1009F00027949A0123703327232B19F0FFEF2F1A26
:100A00003F0A25E12216310408F039CFF12CE12C00
:100A1000B0E0A0E09701810162E0000F111F221FEA
:100A2000331F6A95D1F780179107A207B30708F41F
:100A300026CFE8E2F8E380E5DF011D928A95E9F729
:100A400068E978E3CF0141D5B2E02B16310408F410
:100A5000CBC064E370E080E090E0A70191010DD588
:100A600049015A01C101880F991F880F991FFC0184
:100A7000EC5DF74CEEA3FFA3C080D180E280F38051
:100A8000412C512C3201F7E44F1AF6E85F0AF8ECDA
:100A90006F0AF1E67F0AD301C20122E0B695A7955D
:100AA000979587952A95D1F79C01AD01237033273F
:100AB000442755272CA73DA74EA75FA748E258E338
:100AC0004AA35BA31CA21DA297018601A5E036954F
:100AD000279517950795AA95D1F7B701A601B4E018
:100AE000440F551F661F771FBA95D1F748A759A71E
:100AF0006AA77BA7ECA1FDA1E370FF276CA57DA5EC
:100B0000E627F727EE0FFF1FEE0FFF1FE85EF74CFB
:100B100080819181A281B381C826D926EA26FB264D
:100B20008CA19DA101968CA39DA32816390609F0DE
:100B300082C18091283890912938A0912A38B091AB
:100B40002B38AC01BD01E2E0440F551F661F771F33
:100B5000EA95D1F740275127622773274CA75DA755
:100B60006EA77FA78C019D01F3E036952795179519
:100B70000795FA95D1F748A559A56AA57BA504273D
:100B80001527262737274CA55DA56EA57FA5040F41
:100B9000151F261F371F84259525A625B7258C0DE3
:100BA0009D1DAE1DBF1D082719272A273B27AEA173
:100BB000BFA1CD90DD90ED90FC901397C00ED11E9B
:100BC000E21EF31EFD01C082D182E282F382F1E0D7
:100BD0008F1A9108A108B1082AEF82162FEF92060A
:100BE000A206B20609F04FCF220C331C220C331C94
:100BF000A10168E278E388E798E367D4209200389F
:100C00003092013882E895E914DC08E718E338E906
:100C1000E32E38E3F32ED8018D918D01803120F43D
:100C200060E388EB98E3F7DAF8013197408150E010
:100C300070E060E019A2FE01B196DB01CA018F707D
:100C40009927AA27BB2794E07695679557954795EE
:100C50009A95D1F78A300CF03FC1805D829341159F
:100C600051056105710549F7309711F0CF01E1DBBE
:100C7000E016F10681F682E895E9DBDB86E895E986
:100C8000D8DBFDCD8E7FCCCD60E08CE0DEDB8091CB
:100C90004D3990914E39A0914F39B0915039C2964B
:100CA000A11DB11D8093143890931538A093163868
:100CB000B09317388091A1008D7F8093A10080911F
:100CC00002068F7C806580930206B092A00080911E
:100CD0000006882361F000930606109308068091B1
:100CE0000B0680FFFCCF8091100690911106809139
:100CF000000629EF32E8882361F00093060610937E
:100D0000080680910B0680FFFCCF209110063091E1
:100D1000110650E040E064E27AE687E190E0ADD36E
:100D200069017A01EE24FF2490912111A0912011F4
:100D30008091A0008F7880618093A000809102064E
:100D40008F788064809302065091050640910306D7
:100D5000A0920506809103068F718093030680910F
:100D600003068064809303068091000629EF32E831
:100D7000882361F0809206061093080680910B0686
:100D800080FFFCCF20911006309111068091A100C8
:100D90008D7F8093A100809102068F7C8065809377
:100DA00002065093050640930306291B310997FD5F
:100DB0003395B0E03FD360587F4F8F4F9F4F672FE1
:100DC000782F892F9927969E9001979E300D112498
:100DD000C9018959994065E070E03BD3605E7F4F5F
:100DE000CB011F921F929F936F932AE635E93F93A1
:100DF0002F9368EB78E37F936F93D4DAFF92EF92AF
:100E0000DF92CF92A1E7B5E9BF93AF9328EB38E328
:100E10003F932F93C7DA69E775E97F936F93A8EB48
:100E2000B8E3BF93AF93BEDA6AE088EB98E3F3D9F7
:100E3000CDBFDEBF69CDEAA1FBA1448155816681AA
:100E40007781CF0104968AA39BA3DB01CA01880F97
:100E5000991FAA1FBB1F880F991FAA1FBB1F80279E
:100E60009127A227B32788AB99ABAAABBBAB8A016A
:100E70009B0183E036952795179507958A95D1F7BD
:100E800088A599A5AAA5BBA5082719272A273B2726
:100E900088A999A9AAA9BBA9800F911FA21FB31F56
:100EA0004425552566257725C40ED51EE61EF71E5A
:100EB000C826D926EA26FB264081518162817381AA
:100EC000C40ED51EE61EF71EEAA1FBA13497C08210
:100ED000D182E282F382F8CD895CC0CE84DACFCCB5
:100EE000ABE0B0E0E5E7F7E074C27C013B018A01CA
:100EF000FC0116821782838181FFBAC1CE0101965F
:100F00005C01F7019381F30193FD859193FF81913A
:100F10003F01882309F449C1853239F493FD859155
:100F200093FF81913F01853221F4B70190E0B9D15F
:100F3000E8CF912C212C312CFFE1F31538F08B32C6
:100F400011F190F4803209F1833229F137FC3CC071
:100F500020ED280F2A3050F536FE20C08AE0989EFA
:100F6000200D1124922E06C08D3291F0803371F73E
:100F7000689430F8F30193FD859193FF81913F01CF
:100F80008111DACF21C0689431F8689432F8F2CF39
:100F9000689433F8EFCF689434F8ECCFEAE02E9EF3
:100FA000200D1124222E689435F8E4CF8E3229F4D6
:100FB00036FCFBC0689436F8DDCF8C3619F46894A3
:100FC00037F8D8CF8836B1F2982F9F7D955493305B
:100FD000D8F0833691F18337B1F1833509F05EC0E3
:100FE0002801F2E04F0E511CF801C080D180692D1C
:100FF00070E036FC02C06FEF7FEFC6013CD14C01C0
:10100000689437F882010AC00C5F1F4FFFE3F98331
:1010100088248394912C6501E89437F833FE2AC024
:10102000522C8114910459F5552009F46ACFB70167
:1010300080E290E036D15A94F7CFF801808189831D
:101040000E5F1F4FE5CF2801F2E04F0E511CF80153
:10105000C080D180692D70E036FC02C06FEF7FEF59
:10106000C60114D14C018201D7CFB70180E290E0D4
:1010700018D12A942814190409F0B8F7D1CFF60131
:1010800037FC859137FE81916F01B70190E009D15E
:1010900051105A94F1E08F1A9108C3CF843619F099
:1010A000893609F073C0F80137FE67C0608171812D
:1010B000828193810C5F1F4FF32DFF763F2E97FFA8
:1010C00009C090958095709561957F4F8F4F9F4F88
:1010D000689437F82AE030E0A50113D1C82ECA1869
:1010E0008C2C432C36FE0CC0E89440F8C91440F414
:1010F00034FE05C032FC03C0F32DFE7E4F2E892C3A
:1011000044FE90C0FE01EC0DF11D8081803309F09A
:1011100082C0242D297E422E842D8870582E43FCB7
:101120008FC040FE89C09C2C821418F42C0C922C89
:10113000981844FE8BC0B70180E390E0B2D042FE25
:1011400008C088E790E041FE02C088E590E0B70162
:10115000A8D0C91408F486C0CA94D12C9FEFC91A2C
:10116000D90ACA0CDB1CF60182916F01B70190E02D
:1011700098D0AC14BD04B9F757CF60817181072EA8
:10118000000C880B990B0E5F1F4F96CFD32CE89461
:10119000D4F82AE030E0853731F1232D297FD22E93
:1011A0008F36F9F040F48835A1F0F70186819781F8
:1011B0002B96E2E127C1803749F08837B1F7D4FE9A
:1011C00002C06894D2F820E130E00DC06894D4F8F1
:1011D000F6CF34FE03C0822F8660D82E20E132E0A5
:1011E00002C028E030E0F801D7FE0EC060817181B6
:1011F000828193810C5F1F4FA50183D0C82ECA182E
:101200003D2CE89437F86CCF6081718190E080E0EC
:101210000E5F1F4FF1CF42FC02C083947DCF8394B9
:1012200083947ACF842D867809F476CFF6CFB701F0
:1012300080E290E036D083948214C8F3512C79CFA9
:10124000522C5818821408F474CFF8CF842D867865
:1012500009F47FCF8BE241FE80E247FC8DE2B701CB
:1012600090E076CFB70180E390E01BD09A9471CFE5
:101270008FEF9FEF9DCFFC010590615070400110F2
:10128000D8F7809590958E0F9F1F0895FC016150AF
:10129000704001900110D8F7809590958E0F9F1F98
:1012A00008950F931F93CF93DF93182F092FEB010E
:1012B0008B8181FD09C01FEF0FEF812F902FDF91F0
:1012C000CF911F910F91089582FF14C02E813F810D
:1012D0008C819D81281739073CF4E881F981CF0181
:1012E00001968883998310838E819F8101968E83D6
:1012F0009F83E3CFE885F985812F0995892BA1F399
:10130000DACFFA01AA27283051F1203181F1E8948F
:101310006F936E7F6E5F7F4F8F4F9F4FAF4FB1E0E8
:101320003ED0B4E03CD0670F781F891F9A1FA11DE3
:10133000680F791F8A1F911DA11D6A0F711D811DE4
:10134000911DA11D20D009F468943F912AE0269FA9
:1013500011243019305D3193DEF6CF010895462F08
:101360004770405D4193B3E00FD0C9F7F6CF462FE9
:101370004F70405D4A3318F0495D31FD4052419352
:1013800002D0A9F7EACFB4E0A6959795879577950F
:101390006795BA95C9F700976105710508959B0196
:1013A000AC010A2E06945795479537952795BA951F
:1013B000C9F7620F731F841F951FA01D08953AD0AF
:1013C000A59F900DB49F900DA49F800D911D112499
:1013D00008952F923F924F925F926F927F928F92D9
:1013E0009F92AF92BF92CF92DF92EF92FF920F93B4
:1013F0001F93CF93DF93CDB7DEB7CA1BDB0BCDBFF7
:10140000DEBF09942A88398848885F846E847D8489
:101410008C849B84AA84B984C884DF80EE80FD809C
:101420000C811B81AA81B981CE0FD11DCDBFDEBF3A
:10143000ED010895A29FB001B39FC001A39F700D5D
:10144000811D1124911DB29F700D811D1124911DCC
:101450000895AA1BBB1B51E107C0AA1FBB1FA617FB
:10146000B70710F0A61BB70B881F991F5A95A9F74D
:1014700080959095BC01CD010895A1E21A2EAA1B7A
:10148000BB1BFD010DC0AA1FBB1FEE1FFF1FA21734
:10149000B307E407F50720F0A21BB30BE40BF50B31
:1014A000661F771F881F991F1A9469F760957095BA
:1014B000809590959B01AC01BD01CF010895EE0F81
:1014C000FF1F0590F491E02D0994FB01DC0102C09F
:1014D00001900D9241505040D8F70895F894FFCFF5
:1014E00010108000000000101010404000000000AC
:1014F00010000405060705040302010000010203B1
:1015000001020300070608090E0F1000000000008A
:10151000010101010101020202020000000010208D
:10152000408020100804020101020408020408019E
:10153000000000000B018200AF005701E000BE0078
:10154000D2007630354E4F563233202D2041545440
:10155000494E5931363134205043423A46414332A4
:10156000322056302E332E310A00543D253035645A
:10157000002C563D25303464002C503D302E332E47
:0915800031002D2D2D000D0A0093
:1015890020004641433330334641433232453932F4
:0415990030300000EE
:00000001FF
