:100000003EC0000064C0000062C0000060C000008C
:100010005EC000005CC000005AC0000058C0000074
:1000200056C0000054C0000052C0000050C0000084
:100030004EC000004CC00000C8C2000048C0000014
:1000400046C0000044C0000042C0000040C00000A4
:100050003EC000003CC000003AC0000038C00000B4
:1000600036C0000034C0000032C000002FC20000C3
:1000700027C2000031C200002AC000000103112481
:100080001FBECFEFCDBFDFE3DEBF80914000809386
:100090004000811105C098ED21E094BF20934100FC
:1000A0008CBB28E3A0E0B8E301C01D92AD39B207D4
:1000B000E1F710E0CFE3D0E004C02197FE010E94F9
:1000C000CD08CE33D107C9F7C6D20C94D30898CF48
:1000D000FB01A485B585ED91FC9111970190F0810C
:1000E000E02D682FCD01099590E080E00895AF9252
:1000F000BF92CF92DF92EF92FF920F931F93CF9315
:10010000DF936C017B018B01040F151FEB015E0176
:10011000AE18BF08C017D10759F06991D601ED910B
:10012000FC910190F081E02DC6010995892B79F7AA
:10013000C501DF91CF911F910F91FF90EF90DF905C
:10014000CF90BF90AF900895FC0157854089252F2F
:1001500030E0842F90E0821B930B541710F0CF9661
:10016000089501970895FC0195858685981761F09B
:10017000A685AE0FBF2FB11D51968C9196859F5FBE
:100180009F73968790E008958FEF9FEF0895FC018D
:1001900095858685981731F08685E80FF11D818950
:1001A00090E008958FEF9FEF0895FC0195852685D7
:1001B000892F90E0805C9F4F821B91098F73992754
:1001C0000895DC010FB607FE04C080911101882359
:1001D000B1F01896ED91FC911997848185FF0FC0BD
:1001E0001F969C911F9750968C91981304C08581FF
:1001F0008F7D85830895E4E0F8E3E8947AC108955B
:100200000F931F93CF93DF93EC018C8581608C87D4
:100210009F85888998130BC0E885F985848185FFBF
:1002200006C08C8581FD0DC080E4848312C0062F3A
:100230001F851F5F1F738889811315C0CE01C1DF21
:10024000FACF85818F77806490E49483E885F9857F
:100250008583E885F985628381E090E0DF91CF9125
:100260001F910F910895EF85EC0FFD2FF11DEF5AAF
:10027000FF4F00831F878C85E885F98581FF09C0C2
:1002800085818F77806690E49483E885F9858583FE
:10029000E3CF85818062FBCFCF93DF93EC018C8528
:1002A000882359F0E885F985858185FD03C084811F
:1002B00086FD03C0CE0185DFF5CFDF91CF91089594
:1002C0009FB7F894E0915A0AF0915B0A8091560A20
:1002D00020919538309196384091973850919838C0
:1002E0009FBF80FF08C0CF018827892B21F42F5F93
:1002F0003F4F4F4F5F4F0F0116940794169407948A
:10030000F0011694079416940794E019F1091694D5
:1003100007940694102C16941694011816941694AB
:10032000010C1124E00DF11DA8EEB3E02CD76E0FE7
:100330007F1F811D911D0895CF92DF92EF92FF9252
:10034000CF93DF936B017C01BBDFEB01B9DF6C1B4B
:100350007D0B683E7340A0F0C114D104E104F104A8
:1003600039F4DF91CF91FF90EF90DF90CF90089517
:1003700081E0C81AD108E108F108C851DC4FE6CF86
:10038000C114D104E104F10409F7EBCFCF93DF935B
:10039000CDB7DEB72E97CDBFDEBF88E690E0898768
:1003A0009A871B861C8682E08C8384E098E38D8785
:1003B0009E87AE01495E5F4F6D897E89CE010196B1
:1003C000E0D22E96CDBFDEBFDF91CF9108958C3065
:1003D000F0F490E0FC01E655FE4620812F3FB9F095
:1003E000FC01E254FE46E08130E2E39FF00111247B
:1003F000FC5F613069F4218386539E46DC018C9159
:10040000E80FF11D8089613029F08860808B0895A4
:100410002283F2CF877FFACF87FD03C08430C0F4F8
:100420008C5F982F9F77903238F590910006992332
:1004300031F18F718093060681E0809308068091E8
:100440000B0680FFFCCF8091100690911106089555
:100450008B3061F098EF980F933010F48750E1CF14
:10046000863031F0873031F08FEFDBCF80E0D9CFAD
:100470008AE0D7CF8BE0D5CF8FEF92E8089589EF50
:1004800092E80895E0EAF0E081818D7F8183A0E029
:10049000B6E012968C9112978F7C806512968C93A1
:1004A00080E480838DE9B8DF8DE9B6DF9C0150E000
:1004B00040E064E27AE687E190E034D6C90108952D
:1004C000EF93FF93F898E4E0F8E30BC0EF93FF930A
:1004D000F898E4E0F8E333C0EF93FF93E4E0F8E347
:1004E0005BC02F932FB72F938F939F93AF93BF939F
:1004F0006894CF93DF9320E0C085D8E09089DF0136
:10050000A90FB21FAF5ABF4F8C9120E42C838A836E
:100510009F5F9F738D812785291302C08F7D8D83F7
:10052000908BDF91CF910EF06ACEBF91AF919F91EA
:100530008F912F912FBF2F91FF91EF9118952F93AE
:100540002FB72F933F938F939F93CF93DF93C085C4
:10055000D8E0898198818674880F3485382B82FD94
:100560000DC0C58581E08C0F8F732685281791F00B
:10057000CE0FDF2F20E0D21F998B85873487DF9144
:10058000CF919F918F913F912F912FBF2F91FF91ED
:10059000EF9118953064F2CF8F938FB78F939F931D
:1005A000CF93DF93C085D8E09D8188818C8187FDC2
:1005B000FCCF9F7B90689D83DF91CF919F918F911E
:1005C0008FBF8F91FF91EF9118958F9381E080936A
:1005D000560A8FB78F93EF93FF93E5E9F8E3808195
:1005E0008F5F808381818F4F818382818F4F828350
:1005F00083818F4F8383FF91EF918F918FBF8F9175
:100600001895E4E0F8E31282138288EE93E0A0E00C
:10061000B0E084839583A683B7838AED91E98083D4
:10062000918380E098E080879187128613862FB7A8
:10063000F8948091953890919638A0919738B09120
:1006400098382FBF8093993890939A38A0939B380D
:10065000B0939C38089581E098ED94BF8093610039
:10066000E0E0F6E092E592839DE0958390E293834B
:100670008083109202028093030A9EEF9093260AD1
:100680009093270A9BE09093000A27E833E1209398
:100690005C0A30935D0A8093550A1092510A83E0F8
:1006A0008093500A789461E086E091DE61E082E018
:1006B0008EDE61E083E08BDE61E087E088DE2998F2
:1006C0008091103880FF11C084E098E3E5DDE0916F
:1006D0000C38F0910D381682158280EC848380915D
:1006E000123880931138109210381FB7F894E091A7
:1006F0000C38F0910D38168283E087838BE591E00A
:1007000080879187148680E8858380EC868390912A
:100710000F38C0910E3880910102992309F4BBC0B3
:10072000816080930102C90FDD27DD1FCC0FDD1F23
:10073000CC0FDD1FCA54DE4661E0888148DE62E0EE
:10074000898145DE1FBF64EC79E080E090E0F4DD54
:1007500088EE91E99F938F9384E098E39F938F9322
:1007600015DE0F900F900F900F90CAE0D0E08ADE58
:100770006AE070E080E090E0DFDD2197C1F782DE83
:10078000182F092F8091A1008D7F8093A100809167
:1007900002068F7C806680930206CAE0D0E080E08B
:1007A0003BDE6AE070E080E090E0C6DD2197B9F7BB
:1007B00080E032DE0F931F93BC0190E080E0ADD368
:1007C0002EEE3CE747E651E40ED47BD37F936F9344
:1007D00080E192E99F938F9384E098E39F938F93B6
:1007E000D5DD0E9A0F9A289A8DB79EB708968DBFC1
:1007F0009EBF3FE1D32E49E0C42E55E0E52EF12CFB
:10080000CCE2D2E904E018E32FB7F8948091953850
:1008100090919638A0919738B09198382FBF8093D7
:10082000993890939A38A0939B38B0939C38409114
:1008300000385091013860910238709103384817A0
:1008400059076A077B0780F4319927C0299A0F9AC4
:100850008C529C4FAF4FBF4F80930038909301381C
:10086000A0930238B093033880E0D6DD8D3123E0C9
:10087000920708F47AC00E9884E098E396DC892BFE
:1008800009F4C2CF84E098E36EDC8235910509F06B
:1008900072C02898B9CF8E7F44CF29980F9844967C
:1008A000A11DB11D8093003890930138A0930238A8
:1008B000B0930338A0902111B09020118091A00036
:1008C0008F7880618093A000809102068F78806489
:1008D000809302068090050690900306D09205064C
:1008E000809103068F7180930306809103068064D4
:1008F000809303068EE990DD2091A1002D7F209347
:10090000A100209102062F7C206520930206809290
:100910000506909203069C012A193109A7FC33951C
:10092000AB2DB0E021D460587F4F8F4F9F4F672F82
:10093000782F892F9927C69E9001C79E300D1124CC
:10094000C90189599940B701D9D3605E7F4F7F9320
:100950006F93DF93CF931F930F9318DD0F900F903A
:100960000F900F900F900F907FCF8330934008F03F
:1009700083CF0E9A81CF8237910509F045CF289A0F
:1009800043CFABE0B0E0E6ECF4E06AC27C013B01AF
:100990008A01FC0116821782838181FFBAC1CE01D0
:1009A00001965C01F7019381F30193FD859193FF1B
:1009B00081913F01882309F449C1853239F493FDBF
:1009C000859193FF81913F01853221F4B70190E039
:1009D000B9D1E8CF912C212C312CFFE1F31538F05F
:1009E0008B3211F190F4803209F1833229F137FC16
:1009F0003CC020ED280F2A3050F536FE20C08AE09A
:100A0000989E200D1124922E06C08D3291F08033D5
:100A100071F7689430F8F30193FD859193FF81910C
:100A20003F018111DACF21C0689431F8689432F81F
:100A3000F2CF689433F8EFCF689434F8ECCFEAE063
:100A40002E9E200D1124222E689435F8E4CF8E328C
:100A500029F436FCFBC0689436F8DDCF8C3619F4E7
:100A6000689437F8D8CF8836B1F2982F9F7D955487
:100A70009330D8F0833691F18337B1F1833509F0A3
:100A80005EC02801F2E04F0E511CF801C080D180F9
:100A9000692D70E036FC02C06FEF7FEFC6013CD1DC
:100AA0004C01689437F882010AC00C5F1F4FFFE3C6
:100AB000F98388248394912C6501E89437F833FEF8
:100AC0002AC0522C8114910459F5552009F46ACF9B
:100AD000B70180E290E036D15A94F7CFF8018081D7
:100AE00089830E5F1F4FE5CF2801F2E04F0E511CA6
:100AF000F801C080D180692D70E036FC02C06FEF34
:100B00007FEFC60114D14C018201D7CFB70180E23B
:100B100090E018D12A942814190409F0B8F7D1CF1D
:100B2000F60137FC859137FE81916F01B70190E0A6
:100B300009D151105A94F1E08F1A9108C3CF84362D
:100B400019F0893609F073C0F80137FE67C060817B
:100B50007181828193810C5F1F4FF32DFF763F2EB1
:100B600097FF09C090958095709561957F4F8F4F45
:100B70009F4F689437F82AE030E0A50113D1C82EC2
:100B8000CA188C2C432C36FE0CC0E89440F8C914CB
:100B900040F434FE05C032FC03C0F32DFE7E4F2E20
:100BA000892C44FE90C0FE01EC0DF11D8081803344
:100BB00009F082C0242D297E422E842D8870582E63
:100BC00043FC8FC040FE89C09C2C821418F42C0C6E
:100BD000922C981844FE8BC0B70180E390E0B2D00D
:100BE00042FE08C088E790E041FE02C088E590E040
:100BF000B701A8D0C91408F486C0CA94D12C9FEFBD
:100C0000C91AD90ACA0CDB1CF60182916F01B7011F
:100C100090E098D0AC14BD04B9F757CF60817181D2
:100C2000072E000C880B990B0E5F1F4F96CFD32C0D
:100C3000E894D4F82AE030E0853731F1232D297F7C
:100C4000D22E8F36F9F040F48835A1F0F701868175
:100C500097812B96E2E11DC1803749F08837B1F7C3
:100C6000D4FE02C06894D2F820E130E00DC0689450
:100C7000D4F8F6CF34FE03C0822F8660D82E20E150
:100C800032E002C028E030E0F801D7FE0EC06081FB
:100C90007181828193810C5F1F4FA50183D0C82E83
:100CA000CA183D2CE89437F86CCF6081718190E0D0
:100CB00080E00E5F1F4FF1CF42FC02C083947DCFD6
:100CC000839483947ACF842D867809F476CFF6CFF7
:100CD000B70180E290E036D083948214C8F3512C9F
:100CE00079CF522C5818821408F474CFF8CF842D81
:100CF000867809F47FCF8BE241FE80E247FC8DE2EB
:100D0000B70190E076CFB70180E390E01BD09A94D2
:100D100071CF8FEF9FEF9DCFFC0105906150704028
:100D20000110D8F7809590958E0F9F1F0895FC01B4
:100D30006150704001900110D8F7809590958E0F0A
:100D40009F1F08950F931F93CF93DF93182F092FA1
:100D5000EB018B8181FD09C01FEF0FEF812F902FD9
:100D6000DF91CF911F910F91089582FF14C02E81C2
:100D70003F818C819D81281739073CF4E881F981F6
:100D8000CF0101968883998310838E819F8101967C
:100D90008E839F83E3CFE885F985812F0995892B81
:100DA000A1F3DACFFA01AA27283051F1203181F1DD
:100DB000E8946F936E7F6E5F7F4F8F4F9F4FAF4F63
:100DC000B1E03ED0B4E03CD0670F781F891F9A1F76
:100DD000A11D680F791F8A1F911DA11D6A0F711D2A
:100DE000811D911DA11D20D009F468943F912AE036
:100DF000269F11243019305D3193DEF6CF0108951E
:100E0000462F4770405D4193B3E00FD0C9F7F6CF4E
:100E1000462F4F70405D4A3318F0495D31FD405216
:100E2000419302D0A9F7EACFB4E0A69597958795AC
:100E300077956795BA95C9F700976105710508958B
:100E40009B01AC010A2E0694579547953795279537
:100E5000BA95C9F7620F731F841F951FA01D0895CF
:100E60002F923F924F925F926F927F928F929F92BA
:100E7000AF92BF92CF92DF92EF92FF920F931F93A8
:100E8000CF93DF93CDB7DEB7CA1BDB0BCDBFDEBF81
:100E900009942A88398848885F846E847D848C848C
:100EA0009B84AA84B984C884DF80EE80FD800C8195
:100EB0001B81AA81B981CE0FD11DCDBFDEBFED014F
:100EC000089570D088F09F5790F0B92F9927B751A7
:100ED000A0F0D1F0660F771F881F991F1AF0BA95FE
:100EE000C9F712C0B13081F077D0B1E0089574C075
:100EF000672F782F8827B85F39F0B93FCCF38695F4
:100F000077956795B395D9F73EF490958095709550
:100F100061957F4F8F4F9F4F0895E89409C097FBCD
:100F20003EF490958095709561957F4F8F4F9F4FC0
:100F30009923A9F0F92F96E9BB279395F695879504
:100F400077956795B795F111F8CFFAF4BB0F11F4C7
:100F500060FF1BC06F5F7F4F8F4F9F4F16C088236E
:100F600011F096E911C0772321F09EE8872F762FA4
:100F700005C0662371F096E8862F70E060E02AF0E5
:100F80009A95660F771F881FDAF7880F96958795D1
:100F900097F9089557FD9058440F551F59F05F3F3A
:100FA00071F04795880F97FB991F61F09F3F79F08B
:100FB00087950895121613061406551FF2CF46950D
:100FC000F1DF08C0161617061806991FF1CF86958F
:100FD0007105610508940895E894BB276627772773
:100FE000CB0197F908950BD078C069D028F06ED066
:100FF00018F0952309F05AC05FC01124EECFCADF64
:10100000A0F3959FD1F3950F50E0551F629FF0011B
:10101000729FBB27F00DB11D639FAA27F00DB11D74
:10102000AA1F649F6627B00DA11D661F829F2227FD
:10103000B00DA11D621F739FB00DA11D621F839F84
:10104000A00D611D221F749F3327A00D611D231F5A
:10105000849F600D211D822F762F6A2F11249F57A8
:1010600050408AF0E1F088234AF0EE0FFF1FBB1FCB
:10107000661F771F881F91505040A9F79E3F51056A
:1010800070F014C0AACF5F3FECF3983EDCF3869576
:1010900077956795B795F795E7959F5FC1F7FE2B15
:1010A000880F911D9695879597F9089597F99F67F1
:1010B00080E870E060E008959FEF80EC08950024E0
:1010C0000A941616170618060906089500240A94AD
:1010D00012161306140605060895092E0394000C33
:1010E00011F4882352F0BB0F40F4BF2B11F460FFC2
:1010F00004C06F5F7F4F8F4F9F4F0895AA1BBB1B8C
:1011000051E107C0AA1FBB1FA617B70710F0A61B07
:10111000B70B881F991F5A95A9F780959095BC0128
:10112000CD010895A1E21A2EAA1BBB1BFD010DC023
:10113000AA1FBB1FEE1FFF1FA217B307E407F50787
:1011400020F0A21BB30BE40BF50B661F771F881F63
:10115000991F1A9469F760957095809590959B01F9
:10116000AC01BD01CF010895A29FB001B39FC001A2
:10117000A39F700D811D1124911DB29F700D811DC3
:101180001124911D0895F0DFA59F900DB49F900D3F
:10119000A49F800D911D11240895EE0FFF1F05904F
:0A11A000F491E02D0994F894FFCFBC
:1011AA001020408008040201020408010504060711
:1011BA0008090A0000000000010101010000000006
:1011CA0004050607030201000102030000000000F3
:1011DA0000017700A4004C01D500B300C7007630A7
:1011EA00354E4F563233202D20415454494E5931F1
:1011FA00363234205043423A464143333020563047
:10120A002E312E300A002B313256203D2025642003
:10121A006D562C202B335633203D202564206D56E5
:0A122A000A00543D253033640A0029
:00000001FF
